S0130000636C756E65742D64656D6F2E73726563B4
S113000012C04CC12BC042C029C028C027C026C082
S113001025C024C023C022C021C020C01FC01EC0D0
S11300201DC01CC01BC011241FBECFE5D4E0DEBF21
S1130030CDBF10E0A0E6B0E0E2EBF5E002C0059031
S11300400D92AE36B107D9F711E0AEE6B0E001C0CB
S11300501D92AB37B107E1F703D0A9C2D1CF089500
S11300600F93DF93CF930F92CDB7DEB762D28FE2B7
S113007090E093D2789481E089838FEF63E047E046
S11300809E012F5F3F4F01E09DD0FFCF1F920F9243
S11300900FB60F9211242F933F938F939F93EF9357
S11300A0FF93809172008530A1F1919B1BC082B3B4
S11300B092E0892782BB919B1EC08091720084309C
S11300C0C9F1809172008F5F8093720081508230F9
S11300D039F1833009F45BC0813081F483B58056F3
S11300E083BD0CC08299E3CF89B78F7789BF88E03D
S11300F08093720003C083B5805F83BDFF91EF914D
S11301009F918F913F912F910F900FBE0F901F9051
S1130110189589B78F7789BF109272009198EECFA6
S113012093B580917700833008F044C080E1890F53
S113013083BDE4CF33B5E0917500F0E0E858FF4F9C
S1130140808120917901992787FD909502C095952A
S113015087952A95E2F780FD29C080E1830F83BD4E
S1130160809179018F5F809379018091790183FF78
S1130170C5CF809175008F5F809375009091750055
S1130180809176009817C0F410927901B7CF93B597
S11301908091770080FD0CC080E3890F83BD1092AD
S11301A079018091790180937500A8CF80E3D6CF3F
S11301B080E1F3CF80E3BBCF809172008F5F8093A7
S11301C072009CCF0F93982F0C3708F04EC080918B
S11301D07200882321F089B78F7789BF91986530A1
S11301E008F445C064E06093770083E68093780068
S11301F09093790040937A0000937B00002309F4E4
S113020049C040E050E0F901E40FF51F8081FA0194
S1130210E458FF4F80834F5F5F4F4017A0F3A02F38
S1130220B0E01496602F6C5F90E040E050E03CE852
S1130230FA01E858FF4FE08120E001C0E6958E2FD7
S11302408927969580FD93272F5F2830B9F74F5F54
S11302505F4F461768F3A858BF4F9C930B5F0093FA
S11302607600829909C0209372000F910895662345
S113027009F0B9CF61E0B7CF81E08093720084B513
S1130280885E83BD88B7806888BF89B7806889BF66
S11302900F910895A4E0B0E064E0C6CF1F920F92DE
S11302A00FB60F921124DF92EF92FF920F931F93D8
S11302B02F933F934F935F936F937F938F939F936A
S11302C0AF93BF93EF93FF93DF93CF93CDB7DEB795
S11302D02E97DEBFCDBF94B5829929C09093740048
S11302E080917200882341F0919906C089B78F7775
S11302F089BF88E0809372002E96DEBFCDBFCF9178
S1130300DF91FF91EF91BF91AF919F918F917F9179
S11303106F915F914F913F912F911F910F91FF909A
S1130320EF90DF900F900FBE0F901F901895809163
S11303307200883091F080917400981B983648F4CC
S1130340809173008330D9F0843039F18230A1F682
S11303501EC082E080937300CFCF81E0809372004F
S113036084B5885E83BD88B7806888BF89B7806894
S113037089BF80917400981B983610F3EACF1092CD
S11303807A0180917A018093F8001092F9008091AB
S113039073008F5F80937300AFCF913288F0E09148
S11303A0F800F0E0E750FF4F208130917A0181E0BE
S11303B090E002C0880F991F3A95E2F7282B20831A
S11303C080917A018F5F80937A0180917A0183FF13
S11303D093CF8091F8008F5F8093F8008091F800AC
S11303E0843008F484C02091F8008091FC0030E04F
S11303F0992787FD90950496821793070CF077C090
S1130400109273006091F8006623D1F020E040E080
S113041050E03CE8FA01E750FF4FE08190E001C072
S1130420E695822F8E27269580FD23279F5F98309F
S1130430B9F74F5F5F4F461768F3222309F05CCF8B
S1130440D090F900E090FA00F090FB001091FC00CD
S1130450E0917000F0917100309739F08D2D6E2D80
S11304604F2D2DEF30E0012F099583E6D81609F4BE
S113047043CFE81621F08FEFE81609F03DCF83E073
S1130480F81609F444C080917200882321F0809109
S113049077008430E8F4FF2009F03EC09E012F5F0E
S11304A03F4FD901E0E6F0E08EE001900D928150DB
S11304B0E1F789818823D9F100E00F5FF901E00FAA
S11304C0F11D80818823C9F78D2D63E041E07ADE38
S11304D0E0916E00F0916F00309709F40DCF8D2DEF
S11304E06E2D4F2D2DEF30E0012F099505CF809112
S11304F0F80087FD09C010927A01E091F800F0E05D
S1130500E750FF4F1082F8CE10927300F5CEF894A6
S113051081B5886081BDFFCF8EEFF816C9F68D2DA9
S113052064E04FEF2DEF30E0012F4CDED1CF00E03F
S1130530CBCF0F93DF93CF930F92CDB7DEB77894E1
S1130540899A91988A98929A85B5877885BD85B558
S1130550846085BD85B58C7F85BD85B7816085BF89
S113056085B78D7F85BF8BB780648BBF84B7898344
S11305708FEF63E044E09E012F5F3F4F01E022DEF6
S113058014BE0F90CF91DF910F9108958091720066
S1130590882311F080917700089590936F008093E1
S11305A06E00089590937100809370000895F894FC
S10505B0FFCF77
S11105B2434C554E45542064657669636500DC
S9030000FC
